:020000040000FA
:06000000020107022123AA
:03002B0002255952
:03003B0002257E1D
:0300430002253162
:03005300022196F1
:10008300021F8FE5C754F84401F5C7790122000028
:100093000080FB120086B900030200F1E4792178A5
:1000A30008B800028004F709D8FCE479297802B87B
:1000B30000028004F709D8FCE49002817822790BCE
:1000C3008002F0A3D8FCD9FA7AA27B0C900137788E
:1000D300F179038015E493A3AD82AE838A828B8387
:1000E300F0A3AA82AB838D828E83D8E9D9E7758288
:1000F300787583C074031201197582917583007436
:100103000012011975D00075813F751881751902A8
:10011300759F00020096C09FF59FE473D09F22D085
:1001230083D082C09FE493C0E0740193C0E0740263
:1001330093F59F22080964422E44657673051208DD
:10014300000800020A0002010664422E4465767329
:10015300000000000000000000000000000039045F
:1001630000003F04FF0000B40000280028002830EE
:1001730075A000A000A000A00000080008E001F0A6
:10018300001000100010001000100010005000506C
:1001930000500010001000D0070000000000000F06
:1001A3000001000500307507001000010081FF0009
:1001B300000000FF4F066D065506FF02020208020B
:1001C3005000A0000000E80302B281010000988102
:1001D30002B681010000290D02BC81010000B802B2
:1001E30002B6810100002A0D02BE81010000CE0289
:1001F30002B6810100002B0D02C081010000D00274
:1002030002B6810100002C0D02C281080000D10258
:1002130002B6810100002D0D02C4810100002E0DE4
:10022300FF0100FF2002B281010000958102B68127
:10023300010000920D02C681000000000002BA8195
:100243000300001E03250C250C250C250C250C256D
:100253000C250C250C250C250C250C250C250CA791
:100263000EBF0EA10EFFFF020202020202020202F1
:10027300010D000000100102B281010000A1810202
:10028300B681010000D50D02CC8101000062070296
:10029300B681010000D60D02CA810100002A810245
:1002A300B681010000D70D02C8810100000E810252
:1002B300B681010000D80D02B081010000968002D2
:1002C300B681010000D90D02AC81010000CC80028F
:1002D300B681010000DA0D02AA81010000BA800292
:1002E300B681010000DB0D02A881010000A8800295
:1002F300B681010000DC0D02A6810100001C810211
:10030300B681010000DD0D02A481010000DE0D01B4
:10031300053F100AFF0001307503020106000000CB
:1003230000000000000000000000000000000000CA
:10033300000000000000000000FFFF0600800CE842
:1003430003020A4368617261637465726973746955
:10035300632031000243686172616374657269737B
:100363007469632032000843686172616374657263
:100373006973746963203300104368617261637445
:100383006572697374696320340002436861726142
:1003930063746572697374696320350002B2810105
:1003A30000009E8102B681010000B00E02D28103DB
:1003B3000000800C02B881010000B10E02B6810179
:1003C3000000C20E02D481010000810C02B8810139
:1003D3000000C30E02B681010000D40E02D68102D2
:1003E3000000820C02B881010000D50E02B6810123
:1003F3000000E60E02D881000000960C02BA8103C9
:100403000000970C02B881010000E70E02B68101DB
:100413000000F80E02DA810400009D0C02B881018D
:100423000000F90E12012253ED021201222DEF02F8
:10043300120122ADF002120122B0F002120122E8F1
:10044300F00212012234F102120122CBF202120154
:100453002259B40312012270B403120122A1B4037E
:10046300120122DCB40312012206B5031201223069
:10047300B50312012247B5031201225EB50312012F
:100483002275B5031201229EB503120122B1B503F1
:10049300120122C7B503120122DAB50312012201A8
:1004A300B603120122A7BD02120122ABBE02120142
:1004B30022E3BE0212012206BF0212012211BF0271
:1004C30012012234BF0212012243C0021201221878
:1004D300C10212012293C1021201221BC2021201A4
:1004E3002256C2021201228DC2021201221BC30232
:1004F300120122F4C30212012254C4021201225F28
:10050300C402120122DEC402120122E1C40212015A
:1005130022E4C40212012273C50212012276C5022B
:10052300120122A6C502120122D0C502120122BE67
:10053300C60212012270C70212012227850312018B
:10054300224F85031201227D8503120122B4850304
:100553001201221286031201225D8603120122A8D0
:100563008603120122E886031201222E8703120159
:10057300225C8703120122198803120122238803B4
:100583001201223088031201226388031201222FF1
:1005930089031201223B89031201225389031201A9
:1005A300225D89031201224EBB031201225CBB03AD
:1005B30012012274BB031201228CBB03120122E439
:1005C300DA0112012290DB011201220BDC0112017C
:1005D300222CDD0112012268DD0112012211DE014C
:1005E300120122F8DE011201225CE001120122B3A2
:1005F300E00112012234E10112012224E20112017D
:100603002271E201120122F7E20112012229E30120
:100613001201223DE5011201227FE5011201229D13
:10062300E50112012220E601120122F4E601120182
:1006330022BCE701120122CDDF02120122A0E00257
:1006430012012249E1021201229CE1021201224C11
:10065300E202120122D8E202120122C4E3021201D1
:1006630022F3E30212012206E5021201224EE50201
:1006730012012223E6021201225FE6021201227B0B
:10068300E60212012272BF031201225297031201E2
:10069300226897031201228E9703120122AA98035C
:1006A300120122B49803120122E99903120122E1F3
:1006B3009A031201220080031201223081031201E6
:1006C30022638103120122AD810312012274830389
:1006D30012012266BB01120122D0BB011201222F9B
:1006E300BD011201223FBD011201226CBD011201A5
:1006F30022C3BD011201226CBE0112012273BF018C
:100703001201223DC0011201229DC101120122E00A
:10071300C10112012285C201120122D2C2011201BA
:1007230022F8C20112012206C5011201220BC501E2
:1007330012012210C7011201225DC701120122D04A
:10074300C70112012203C801120122A5C801120127
:10075300224EC90112012286C90112012289C9014F
:10076300120122D1C90112012211CA011201226808
:10077300CA0112012260AA0312012278AA031201FC
:1007830022C0AA03120122D6AA031201221DAB031F
:1007930012012231AC03120122BEAC031201220961
:1007A300AD031201220426001201223F260012018A
:1007B30022842600120122442700120122CA2700A4
:1007C3001201222F28001201225B28001201229419
:1007D3002800120122D22A00120122B62C00120193
:1007E300229C2E00120122DF2F001201222D320043
:1007F3001201223F33001201228A34001201229A8D
:100803003500120122B73500120122F23500120120
:1008130022143600120122773600120122383B00DF
:10082300120122CD3B001201221E3C00120122457F
:100833003C00120122973C00120122B53C00120138
:10084300220F3D00120122F83D001201226E3F00EB
:10085300120122F23F00120122E48903120122EE67
:100863008903120122318A031201224C8A031201E5
:1008730022DC8A03120122048B03120122418B031F
:10088300120122788B03120122A18B03120122167B
:100893008C031201222B8C03120122408C031201C0
:1008A30022718C03120122858C03120122AA8C036C
:1008B300120122E48C03120122108D031201229CE7
:1008C3008D03120122C78D03120122D28D0312015F
:1008D300221B8E03120122458E03120122708E0306
:1008E30012012235BA03120122449B021201227221
:1008F3009B02120122C09C02120122A09D0212013E
:1009030022BF9D021201223C9E021201227F9E02FF
:10091300120122D59F0212012296A0021201221D6A
:10092300A302120122BEA302120122B4A4021201E5
:1009330022B1A5021201220BA70212012296A702DD
:10094300120122B8B70312012221B8031201227542
:10095300B8031201229CB803120122CDB80312017D
:1009630022988E03120122058F031201224C8F035A
:1009730012012264900312012260910312012243A7
:100983009203120122E1C70212012223C8021201BB
:1009930022F5C802120122CEC902120122C8CA02DC
:1009A300120122AACB0212012213CC02120122C984
:1009B300CC021201223DCD02120122A9CD02120165
:1009C30022D2CD021201224CCE02120122E5CE0226
:1009D3001201224ACF021201225FCF02120122A585
:1009E300CF02120122BECF0212012223D002120132
:1009F3002226D0021201228EA403120122B6A403DE
:100A0300120122F4A403120122B2A5031201221936
:100A1300A60312012235A6031201225DA6031201C9
:100A2300228DA6031201229CA60312012219A703F9
:100A33001201223FA70312012255CB0112012233D7
:100A4300CD0112012265CF01120122A1CF011201B2
:100A530022CECF01120122B8D00112012203D1010B
:100A63001201224ED10112012260D101120122A0F2
:100A7300D101120122D5D10112012223D201120187
:100A83002252D20112012275D201120122C2D201D5
:100A930012012247D30112012261D501120122A0C2
:100AA300D701120122E1D70112012283D9011201D8
:100AB30022C4D90112012237DA011201228DDA018F
:100AC300120122B8DA011201222F8E021201222D05
:100AD3008F02120122C69502120122E79702120128
:100AE30022B299021201221A9B021201223D5A00DC
:100AF300120122EC5A00120122325B00120122720F
:100B03005C00120122085E00120122825E001201C3
:100B1300229D5E00120122185F0012012272600002
:100B2300120122D26100120122D86200120122397D
:100B33006400120122526400120122B06400120107
:100B4300229E6500120122D1650012012241660036
:100B5300120122BB6600120122056700120122CF97
:100B63006700120122A468001201228369001201A6
:100B7300220E6A001201227C6A00120122F06A002E
:100B83001201221B6B00120122DA6B001201223FB9
:100B93006D001201225C6D001201227B6D001201B7
:100BA300226C6E00120122916E00120122BB6E00B4
:100BB300120122366F00120122906F00120122F9F6
:100BC3007000120122A77100120122E871001201C4
:100BD3002218720012012266720012012272720040
:100BE300120122507300120122817300120122B2FA
:100BF30073001201223274001201226A740012017E
:100C030022BC7400120122F974001201221677002B
:100C13001201223C7900120122277B0012012211CA
:100C23007D00120122FCFF01120122ED9601120147
:100C3300221D9701120122F69D011201227B9F01C1
:100C430012012278A50112012260A6011201229D40
:100C5300A601120122C0A601120122F1A60112016E
:100C630022FAA60112012204A701120122F2A7010E
:100C7300120122E8A801120122DE8101120122DD04
:100C83008501120122E385011201221E8D01120149
:100C930022379201120122409E031201223A9F033E
:100CA300120122AE9F03120122EC9F031201226064
:100CB300A003120122D9A003120122E2A003120110
:100CC30022EEA00312012203A10312012241A10378
:100CD30012012257A10312012205930312012212CA
:100CE30093031201222C93031201226B930312012B
:100CF30022A993031201220E9403120122239403C7
:100D03001201222E94031201223B94031201225258
:100D130094031201226094031201226B94031201C3
:100D230022779403120122869403120122919403E1
:100D3300120122B494031201225B95031201226B68
:100D43009503120122859503120122A29503120134
:100D530022BE9503120122E39503120122EE9503AD
:100D6300120122039603120122179603120122781D
:100D730096031201227E9603120122849603120126
:100D8300228A9603120122A29603120122D5960308
:100D930012012205800212012289800212012238E7
:100DA3008102120122978202120122B884021201E7
:100DB30022A48502120122D98502120122FB850297
:100DC300120122AA8602120122A28802120122CB58
:100DD30088021201225D89021201228F8902120107
:100DE300229C8902120122F38902120122198A022A
:100DF300120122868C02120122898D02120122E144
:100E03008D02120122D5E901120122DFEA0112014A
:100E130022C6EB01120122D0EB01120122F2EB01F7
:100E2300120122FEEB0112012297ED01120122C6EB
:100E3300ED01120122E2EE011201223BEF01120148
:100E430022A1F00112012280F101120122DCF10141
:100E530012012249F20112012284F201120122C37A
:100E6300F2011201227CF50112012296F501120111
:100E73002222F60112012230F60112012289F60123
:100E830012012297F6011201220AF7011201226EC2
:100E9300F701120122B8F70112012217A802120169
:100EA3002239A8021201225FAA0212012274AD02A2
:100EB3001201228CAE021201223FAF021201222143
:100EC300B00212012213B60312012238B603120133
:100ED30022AAB60312012253D8021201225CD802BD
:100EE30012012265D8021201223CD902120122ED1D
:100EF300DA0212012223DB021201225DDB0212015C
:100F03002293DB02120122CDDB0212012201DC0259
:100F13001201222DDC0212012276DC02120122B020
:100F2300DC02120122F9DC0212012251DD0212015C
:100F33002286DD02120122E1DD021201221BDE0202
:100F43001201226CDE02120122A2DE02120122DC55
:100F5300DE021201220ADF021201222DDF02120138
:100F630022D6BC0312012202BD031201225DBD037E
:100F730012012267BD0312012277BD031201224130
:100F8300F80112012256F801120122B2F8011201EE
:100F9300221DF90112012265F901120122CFF90183
:100FA300120122FEF9011201220CFA011201226E32
:100FB300FA01120122ACFA01120122C7FA0112014D
:100FC3002262FB0112012207FC011201228AFC01A9
:100FD300120122C3FC011201224EFD01120122A5BE
:100FE300FD0112012204FE0112012216FE0112016B
:100FF300223CFE0112012245FE0112012299FF014A
:1010030012012281BD03120122C3FE02120122A199
:10101300FF02120122E1AF0312012226B0031201E3
:10102300226CB00312012235B203120122F6BF0370
:1010330012012211C00312012221C0031201224A0C
:10104300D0021201226AD002120122E0D10212015F
:10105300222ED2021201224ED202120122B6D20253
:1010630012012238D3021201227ED3021201220A74
:10107300D40212012213B90312012244B90312014B
:10108300226EB903120122CCB90312012246F302E4
:101093001201226BF302120122D2BE031201225962
:1010A30040001201220B4200120122AF4200120142
:1010B30022524300120122094400120122C74800B0
:1010C3001201225E49001201229A4A0012012202F1
:1010D3004B00120122B64B001201226C4E0012018A
:1010E30022A64E00120122104F001201226E4F0061
:1010F300120122CC4F0012012229500012012218A2
:1011030051001201225E5100120122A3510012016B
:1011130022C651001201220953001201221D53005D
:101123001201222654001201226554001201229159
:101133005400120122E05400120122015500120151
:10114300223F5500120122865700120122C7570081
:10115300120122655800120122D0580012012209FF
:101163005A001201220AC10312012287A7031201A6
:101173002252AA03120122CDC00312012225BC036D
:1011830012012235BC031201224CBC03120122C8F6
:10119300BC0312012287A10312012231A20312010F
:1011A3002273A403120122F92500120122EC7F000D
:1011B300120122F0E602120122EDE802120122736B
:1011C300E9021201227AEA021201223EEB02120123
:1011D30022BCEB021201229FEC02120122A2EC02BA
:1011E300120122B0EC02120122CDEC02120122F60E
:1011F300EC021201221FED021201222DED02120157
:101203002245ED021201222ABE03120122A3BE03CC
:10121300120122C2BE0312012279B203120122E09B
:10122300B2031201228BB30312012201B403120190
:1012330022EB9A031201221E9B03120122249C0318
:10124300120122799D0312012245B30212012221C8
:10125300B40212012268B402120122A5B4021201DF
:101263002213B5021201226DB502120122DDB5026D
:10127300120122B5B602120122A8B7021201222CD2
:10128300B802120122CFB9021201225ABA02120184
:1012930022EABA0212012283BB021201229ABB0282
:1012A300120122D5BC021201222BBD02120122001F
:1012B300AB01120122A4AF01120122CDAF01120131
:1012C30022F6AF01120122A8B00112012286B20157
:1012D300120122D8B3011201221FB90112012258AF
:1012E300B9011201229CB901120122A8BA0112010B
:1012F3002233AD031201224BAD031201229CAD0335
:101303001201229FAD031201228AAE03120122E2CF
:10131300AE0312012288AF03120122AAAF03120106
:10132300221CF9021201226CF90212012289F9022C
:101333001201228CFA0212012231FB0212012272E3
:10134300FC0212012286FE02120122D0FF011201C9
:1013530022ECC003E066701008A3E066700A08A3DD
:10136300E066700408A3E06622C3E7960809E796DF
:101373000809E7960809E79622C3E09608A3E096D2
:1013830008A3E09608A3E09622C008C3E096F508F8
:1013930008A3E096420808A3E096420808A3E09653
:1013A30045087001D3D00822080808EAC0E0EBC062
:1013B300E086F0E7A4FA180986F0E7A42AFA1809E8
:1013C30086F0E7A42AFA180986F0E7A42AFA198610
:1013D300F0E7A4FBE5F02AFA190886F0E7A42BFB53
:1013E300E5F03AFA190886F0E7A42BFBE5F03AFAA0
:1013F30018180986F0E7A4C5F02BFBE43AFA19089C
:10140300E7C5F0C6A426F6E5F03BFBE43AFA1886F6
:10141300F0E7A4F6E5F00826F6E43B08F6E43A081C
:10142300F6D0E0FBD0E0FA226016080808C6C31322
:10143300C618C613C618C613C618C613C6D5E0EA1F
:10144300227009080808226016181818C6C333C684
:1014530008C633C608C633C608C633C6D5E0EA2273
:10146300E627F60809E637F60809E637F60809E637
:1014730037F622E026F608A3E036F608A3E036F6B0
:1014830008A3E036F622E026F008A3E036F008A32E
:10149300E036F008A3E036F022C3E697F60809E643
:1014A30097F60809E697F60809E697F622C3E09649
:1014B300F008A3E096F008A3E096F008A3E096F006
:1014C30022E657F60809E657F60809E657F608092B
:1014D300E657F622E056F608A3E056F608A3E056D0
:1014E300F608A3E056F622E056F008A3E056F0080B
:1014F300A3E056F008A3E056F022E0F608A3E0F6D6
:1015030008A3E0F608A3E0F622E6F008A3E6F00855
:10151300A3E6F008A3E6F022E0FAA3E0FBA3E0FCD5
:10152300A3E0FD22EAF0A3EBF0A3ECF0A3EDF0229D
:10153300E0F8A3E0F9A3E0FAA3E0FB22E8F0A3E9D3
:10154300F0A3EAF0A3EBF022CAC0E0E6F0A308DAC6
:10155300FAD0E0FA22CAC0E0E0A3C582CCC582C5B6
:1015630083CDC583F0A3C582CCC582C583CDC58396
:10157300DAE6D0E0CA22C3E498F8E499F91215BA7E
:101583008026C3E49AFAE49BFBE920E7E91215BA43
:10159300E498F8E499F922C3E498F8E499F9121568
:1015A300BAE498F8E499F9C3E49AFAE49BFB22EBD2
:1015B30020E7CFE920E7E0B90010BB0008E88AF094
:1015C30084F8AAF022E4FBC8FA22EB70227B10C84D
:1015D30033C8C933C9335007C39AC3DBF280069AB1
:1015E30050012ADBEAC833F4C8C933F4C9FA2275B7
:1015F300F008E4C833C8C933C933C99AC99B500436
:10160300C92AC93BD5F0ECFBC833F4C8E4C9FA22B4
:10161300600D08C6A2E713C618C613C6D5E0F322A9
:10162300600C08C6C313C618C613C6D5E0F42270EF
:101633000422600D18C6C333C608C633C6D5E0F40A
:101643001822251810AF08F518400C15198008F555
:101653001840021519D2AF2200C0D0251810AF08C8
:10166300F518500C05198008F51850020519D2AF6A
:10167300D0D0222518F58210AF08F518400C1519A3
:101683008008F51840021519D2AF85198322251851
:10169300F582E43519F583222518F8E43519F92282
:1016A3002518FAE43519FB222518FCE43519FD2227
:1016B300E4732518C582C0E0E51934FFC583C0E093
:1016C300E518C3958224F810AF088583198582181D
:1016D3008008858319858218D2AFCEF0A3E520F068
:1016E300A37808E608F0A3DEFAEFF0A3E58124FA75
:1016F300F8E608F0A3E608F0A3E608F0A30808E676
:1017030008F0A3E608F0A315811581D0E0FED0E030
:10171300F8158115811581E8C0E0EEC0E022251897
:10172300C582C0E0E51934FFC583C0E0E518C39561
:101733008224F910AF088583198582188008858370
:1017430019858218D2AFCEF0A3E520F0A37808E67E
:1017530008F0A3DEFAEFF0A3E58124FBF8E608F036
:10176300A3E608F0A30808E608F0A3E608F0A3152B
:10177300811581D0E0FED0E0F815811581E8C0E045
:10178300EEC0E022851983851882E0A3FEE0A3F56D
:10179300207808E0A3F608DFFAE0A3FFE0A3C0E0A7
:1017A300E0A3C0E0E0A3C0E0E0A3C0E0E0A3C0E0AA
:1017B30010AF088582188583198008858218858370
:1017C30019D2AFD083D08202011F85198385188275
:1017D300E0A3FEE0A3F5207808E0A3F608DFFAE033
:1017E300A3FFE0A3C0E0E0A3C0E0E0A3C0E0E0A368
:1017F300C0E010AF08858218858319800885821898
:10180300858319D2AFD083D08222C0D02518C58258
:10181300C0E0E51934FFC583C0E0E518C395822411
:10182300F310AF088583198582188008858319858D
:101833008218D2AFC8F0A3E9F0A3EAF0A3EBF0A3B8
:101843007908E709F0A3D8FAECF0A3EDF0A3EEF0E2
:10185300A3EFF0A3D0E0F0A3D0E0F0A3D0E0F0A397
:10186300E520F0A3E5F0F0A322851983851882E033
:10187300C0E0A3E0F9A3E0FAA3E0FBA37808E0F655
:1018830008A3DFFAE0FCA3E0FDA3E0FEA3E0FFA3CF
:10189300E0C0E0A3E0C0E0A3E0F5D0A3E0F520A31F
:1018A300E0A3F5F010AF08858319858218800885B9
:1018B3008319858218D2AFD082D083D0E0F8D0E0EC
:1018C3003274048006740280027401C0E0F40412CE
:1018D3001676D0E012154B22740480047402800043
:1018E300CCC0E0EDC0E0E518C39CCCAD1950011DA0
:1018F30010AF068C188D1980068C188D19D2AF1273
:101903001558D0E0FDD0E0FC22D083D082E9C0E0BE
:10191300E493A3C386F0C5F095F0F908E493A38696
:10192300F0C5F095F0700BE493A3C3994005E90467
:101933008002A3E475F002A42582F582E5F03583E5
:10194300F583D0E0F9E493A3C0E0E493C0E022D0B0
:1019530083D082ECC0E0EDC0E0E493A3FCE493A366
:10196300FDED4C600D12199EEC24FFFCED34FFFDE0
:1019730080EFE493A3FCE493A3FDED4C600D1219F7
:10198300DDEC24FFFCED34FFFD80EFD0E0FDD0E083
:10199300FCE493A3C0E0E493C0E022C0E0C3E4937B
:1019A30096087401939618400FE4936670080874C0
:1019B3000193661870007019A3A3C3E49396087487
:1019C30001939618A3A3400DD0E0D0E0D0E0021914
:1019D3008EA3A3A3A3A3A3D0E022C0E0C0F088F00A
:1019E300E4936670080874019366187000A8F0A366
:1019F300A3700BD0F0D0E0D0E0D0E002198EA3A307
:101A0300D0F0D0E02274F5121721EAFEEBFFEE24AA
:101A130034F8EF3400F988088909EE2435F582EFAC
:101A23003400F583E0F8EE2437F582EF3400F583D4
:101A3300E0F50AEC850AF0A4FCAAF0850AF0EDA40F
:101A43002AFDE82CF8E43DF97A257B001215BAEA61
:101A5300850882850983F0F8740758F97401B90081
:101A6300028004C333D9FCFAE8131313541FF8EEAE
:101A730028F8EF3400F9E8245DF582E93400F583B2
:101A8300E05A6008EE2434F582EF802CEE2434F51E
:101A930082EF3400F583E0C0E0EE2436F582EF34C4
:101AA30000F583E0F5F0D0E084A8F0EE28F8EF34F9
:101AB30000F9E82438F582E93400F583E0F97F047E
:101AC3000217CD74F5121721EAFEEBFFEE2434F56D
:101AD30082EF3400F583E0C0E0EE2435F582EF3485
:101AE30000F583D0E0F08E828F83A3A3A3A3A3A3E7
:101AF300A3C082C0838E828F83A3A3A3A3A3E0F892
:101B0300A3E0F9D083D082E0C398F508A3E099F568
:101B130009EE247FF582EF3400F583E064017069F8
:101B2300EE2480F582EF3400F583E0F8A3E0F98E2C
:101B3300828F83A3A3A3A3A3A3A3E0FCA3E0FD8EAF
:101B4300828F83A3A3A3A3A3E0FAA3E0FBC3EA9C2E
:101B5300EB9D5010C3EC98ED99402EC3EA98EB9996
:101B63005027800EC3EA98EB994007C3EC98ED9990
:101B730040177CE17D04EEFAEFFB120B83EE247F2A
:101B8300F582EF3400F583E4F0EE2434F8EF34000B
:101B9300F9E8FCE9FDEE2435F582EF3400F583E046
:101BA300F8EE2437F582EF3400F583E0F50AE50813
:101BB300850AF0A4F508AAF0850AF0E509A42AF538
:101BC30009E82508F8E43509F97A257B001215BAE6
:101BD300EA8C828D83F0F8740758F97401B9000216
:101BE3008004C333D9FCFAE8131313541FF8EE2807
:101BF300F8EF3400F9E8245DF582E93400F583E079
:101C03005A6008EE2434F582EF802CEE2434F582FA
:101C1300EF3400F583E0C0E0EE2436F582EF3400C4
:101C2300F583E0F5F0D0E084A8F0EE28F8EF340077
:101C3300F9E82438F582E93400F583E0F912251D2B
:101C4300021AC1C082C083851882851983E0F8A374
:101C5300E0F9C3EA9CEB9D5010C3EC98ED99401B4F
:101C6300C3EA98EB995014800EC3EA98EB994007A6
:101C7300C3EC98ED994004790180027900D083D0B8
:101C83008222EAC39CFAEB9DFB2274EF1217219088
:101C930003A7E064086005E06407702A9061C8E068
:101CA30060249003D5E0F4601DE0F875F003A4C848
:101CB300AAF02AF974D728FE740339FF8E828F8322
:101CC300A3A3A3E07003021DBD906060E0C0E0EE3B
:101CD3002468F582EF3400F583D0E0F0750C4A7583
:101CE3000D05750800750900E5D914F50AE5D95401
:101CF30003F50E60177403650E605CE50A6010EE71
:101D03002467F582EF3400F583E07003021DA2908F
:101D13000545E06401602AEE2482F582EF3400F584
:101D230083E06004780480027800850A08E508C32C
:101D330098FA95E0FB120A4B8A088B09EA45097069
:101D430005120D758074EE2482F582EF3400F5835D
:101D5300E070048A0C8B0DE50A6012850C82850DF8
:101D630083F50BE5D9F0A3150BE50B70F6EE248292
:101D7300F582EF3400F583E0604474FC250AF50A2C
:101D8300780C1218C8AC0AA90EEEFAEFFB120C1F5E
:101D9300740212165BE97026AA08AB0912121F79A6
:101DA3003D8E828F83A3A3A3A3E0FA7B0012091FB6
:101DB300EEFAEFFB120B9B120C3179008074740363
:101DC300650E6056850A1075110078101218C8AC9C
:101DD3000CAD0DAA08AB09120BFB740212165BEED5
:101DE3002468F582EF3400F583E064807004747F27
:101DF3008001E0F50C780C1218CCE50EF50C780C8C
:101E03001218CCA90AAC08AD099003D5E0FA7B00FF
:101E13001208E3740212165B80139003A7E06408B0
:101E2300600BAC0CAD0DEEFAEFFB120C8B120D81B7
:101E330079017F0A0217CD74F512172174FC12166B
:101E430045EAFEEBFF8908A2AFE433F509C2AF8090
:101E53006AEE2463F8EF3400F97A007B00A2AFE462
:101E630033F50AC2AF88828983E0FCA3E0FDEC4D21
:101E7300603A88828983E0FAA3E0FB8A828B83E05D
:101E8300FCA3E0FD88828983ECF0A3EDF08A828BCA
:101E930083E4F0A3F088828983E0FCA3E0FDEC4DAA
:101EA300700A88828983A3A3E4F0A3F0E50AA2E081
:101EB30092AF12121F9004E8E004F0EE2463F5825F
:101EC300EF3400F583E0F8A3E0F9E849603DEE2440
:101ED30063F582EF3400F583E02402FAA3E03400D3
:101EE300FBEA2402F50AEB3400F50B780A1218C852
:101EF3008A828B83E0FCA3E0F9EEFAEFFB120BBFBF
:101F0300740212165BE97003021E549004E8E06049
:101F1300639004E9E0F89004E8E0C398500C74027D
:101F2300650870509004EAE0604A8E828F83A3A311
:101F3300A3A3E0851882851983F0A3E4F09004E855
:101F4300E0F87402121691E8F0A3E4F09004E8E0DC
:101F5300F89004E7E028F07402121691AC82AD8386
:101F6300851882851983AA82AB8379011208EF90C1
:101F730004E8E4F0E509A2E092AF740412165B02F0
:101F83001AC10000008521878522C622C0E0C0D087
:101F9300E8C0E0E9C0E0EAC0E0EBC0E0ECC0E0ED9F
:101FA300C0E0EEC0E0C008C009C00AC00BC082C0D8
:101FB30083C0F0A2AFE433FEC2AF759B0090618291
:101FC300E0A2E05012E591A2E0500C7591FE74017D
:101FD30065217003121C8DE0A2E55051E591A2E545
:101FE300504B7591DF9003A7E064076005E0640838
:101FF300702374016521703579019003D5E0FA757A
:10200300F003A4CAA8F028FB74D72AFA74033BFB95
:10201300121E3A8018E0640D70139003C9E004F0B7
:1020230064287002E4F07A00E0F9120D879061826F
:10203300E0A2E640030220D6E591A2E64003022097
:10204300D67591BF9003A7E064057008120CB51212
:102053000CC18003120CBB752100120D15E990030E
:10206300A8F07900120D09120AF97A017B00900396
:10207300A6E0F9120FD9907803E0644270559005F9
:1020830049E014F0704DC2AF12208E00782AD0E0E0
:10209300F618D0E0F6E59F540770057509FF800335
:1020A30075097FC4C0E07829E6F50808E65509F507
:1020B30009740B7808121623D0E02508F890627093
:1020C300E0A2E740F8E8C333906272F0906270E0F8
:1020D300D2E0F0906181E0A2E35009E5E9A2E35088
:1020E3000375E9F7A3E0A2E75009E591A2E75003DE
:1020F30075917FEEA2E092AFD0F0D083D082D00B67
:10210300D00AD009D008D0E0FED0E0FDD0E0FCD06A
:10211300E0FBD0E0FAD0E0F9D0E0F8D0D0D0E03264
:10212300C0E0C0D0C082C083906183E0A2E05009C8
:10213300E5BFA2E0500375BFFEE0A2E15009E5BF91
:10214300A2E1500375BFFDE0A2E25009E5BFA2E2A0
:10215300500375BFFBE0A2E35009E5BFA2E35003C0
:1021630075BFF7E0A2E45009E5BFA2E4500375BFD1
:10217300EFE0A2E55009E5BFA2E5500375BFDFE03C
:10218300A2E65009E5BFA2E6500375BFBFD083D0D6
:10219300828088C0E0C0D0E8C0E0E9C0E0EAC0E0E7
:1021A300EBC0E0ECC0E0EDC0E0C0F0E5A7A2E65074
:1021B3000FE5A1A2E6500953A7BF75A1BF1221FBEA
:1021C300E5A7A2E5500CE5A1A2E5500653A7DF75EC
:1021D300A1DFE5A7A2E15009E5A1A2E1500375A1A2
:1021E300FDE5A7A2E2500CE5A1A2E2500653A7FB2E
:1021F30075A1FBD0F002210C74F81217217521018F
:102203009003A7E064067015120C4F8A828B83A398
:10221300A3A3A3A3A3E0FAA3E0FB120CA3A2AFE43E
:1022230033FED2AF9003ADE0640170187A207B00D7
:102233009003A6E0F91210637A207B009003A6E0D6
:10224300F9120FDF906182E0D2E6F0900546E0607C
:102253002185C62280169003ACE064017008E5C6B0
:1022630054F84405F5C653BEFC121F88740165215A
:1022730060E4EEA2E092AF7F010217CD008E238FC0
:1022830024858228858327851882851983E0CEA338
:10229300E0CF852882852783EBC9EAC8EDCBECCA5A
:1022A30075F010C3E833C8E933C9EA33CAEB33CB5B
:1022B300C3EA9EF526EB9FF525B35004AB25AA266A
:1022C300EC33CCED33CDD5F0DAAE23AF242274ED6D
:1022D3001217218A088B098C0A8D0B74131216911D
:1022E300780C1214FD7808790C12136C75100175B3
:1022F30011C875120075130050127808790C121466
:102303009C7810790812136C50168010780C790899
:1023130012149C7810790C12136C4004790180021A
:1023230079007F0C0217CD74ED1217218A088B09EF
:102333008C0A8D0B7413121691780C1214FD780C01
:10234300790812136C40117808790C12149CAA08AE
:10235300AB09AC0AAD0B8022751000751100751224
:10236300007513017810790C12149C7810790812F7
:102373001463AA10AB11AC12AD1380A68A828B83AF
:102383007508FF7509FF750AFF750B0078081214AD
:10239300EA7F040217CD74F51217218C828D83789E
:1023A300081214FD8A828B8378081214B0EA24047D
:1023B300F8EB3400F98C828D83A3A3A3A3E0FCA3E1
:1023C300E0FD88828983C3E09CF0A3E09DF08882CE
:1023D3008983C3E09420A3E0944E40268A828B83B2
:1023E3007508FF7509FF750AFF750BFF780812144E
:1023F300898A828B83A3A3A3A3E02420F0A3E034E0
:102403004EF002237F74F5121721E9FE9004FCE0DD
:10241300FAA3E0FBEEC333F8E433F974DE28F58264
:10242300748039F583E02AF508A3E03BF5097808C1
:102433001218C87A407B427C0F7D001222807402FE
:1024430012165B8A088B098C0A8D0B74107808129C
:10245300142BAA08AB097F040217CD74F1121721BC
:102463008A0C8B0D8C0E8D0F740F121691E0FAA34C
:10247300E0FB7411121691E0F508A3E0F509780862
:102483001218C8EA2401F508EB3400F509E4F50A4B
:10249300F50B780C79081213AB750871750902787E
:1024A3000C79081213ABAA0CAB0DAC0EAD0F1222B4
:1024B30080740212165B8B09EA450960047A018075
:1024C300027A00EC2AFCED3400FD7413121691E03D
:1024D300F8A3E0F9E8FEE9FFECF8EDF97A717B0285
:1024E3001215BA880889098E828F83780812150C11
:1024F300ECF8EDF97A717B021215BA8A088B09742C
:102503000578081216328E828F83A3A3A3A3E5084E
:10251300F0A3E509F07F080217CDC082C083E990DC
:102523006000F0D083D08222C2AF02000022C0E05C
:1025330074F212180DA2AFE433FED2AFC2C0E5D1DC
:10254300A2E4500653D1EF121201EEF8EEA2E0928C
:10255300AF7F0102186CC0E0C0D0E8C0E0E9C0E082
:10256300A2AFE433F8D2AFC2C7E8F9E8A2E092AF72
:10257300D0E0F9D0E0F8D0D0D0E032C0E0C0D0E86D
:10258300C0E0E9C0E0C008C009C082C083A2AFE4D4
:1025930033F9D2AF9009D1E0F89009D2E068700B1B
:1025A300539AFB9009D37401F08031C2E99009D1A9
:1025B300E0F508740125089009D1F07509007451FC
:1025C3002508F58274093509F583E0F5C19009D131
:1025D300E0C3948040069009D17400F0E9F8E9A2C1
:1025E300E092AFD083D082D009D008D0E0F9D0E018
:1025F300F8D0D0D0E03202011FFFFFFFFFFFFFFF43
:10260300FF74F71216B5E99002E6F07C1E7D037A9B
:10261300FF7BFF12082F9002E774FFF0A3F0A3E4FF
:10262300F0A3F079051207B79002E6E0F91206DF8E
:102633007A4D7B081209FD7F0102178774F4121685
:10264300B58A088B09EB548060309002E6E0F912FA
:102653000FC18A0A8B0BAE0AAF0BEE4F60138E824B
:102663008F83E064B070031207CFEEFAEFFB120F13
:10267300AFAA08E5096480FB80047A007B00022886
:102683005674F21216B574FC121645EAFEEBFFEE11
:102693004F60387402121691EEF0A3EF122ABBECCE
:1026A300F0A3ED122ABBAA82AB831206D9E9F5087F
:1026B3007073741212169112366FE50A450B60653A
:1026C3008E828F83122732EE4F7005750802805574
:1026D3007A067B001210218A0C8B0DA80CA90DE839
:1026E300497005750813803D88828983E412273C6D
:1026F300A3A3EEF0A3EF123B08E50AF0A3E50BF06A
:102703009002EC1227C49002EC6017E0FCA3E08077
:1027130003EAFCEBFD8C828D831227C470F38C8259
:102723008D83123594A908740412165B023D0AA323
:10273300A3A3A3E0FEA3E0FF22F0A3F08882898392
:102743002274F21216B5890AE975F017A4FEAFF0E8
:102753009002EBE4F09002E91227C4600A121027FA
:102763009002E9E4F0A3F0EEFAEFFB1210218A08DD
:102773008B09EA4509602FEEFCEFFD7900120F9DEE
:102783009002E9E508F0A3E509F07B008008122731
:10279300AEE4F0A3F00BEBC3950A40F2E50A900216
:1027A300EBF0790080027913023D0AEB75F017A470
:1027B300F8A9F09002E9E028FAA3E0398A82F583C8
:1027C3002212332AEA4B2274F41216B575080075E7
:1027D3000900740C121691123ADCFEE9FF800CE535
:1027E300082401F508E5093400F509C3E5089CE56B
:1027F300099D503285080A85090B7403780A12165D
:1028030032EA250AF8EB350BF988828983A3A3A35F
:10281300A3A3A312366FEE650A7003EF650B70BFB7
:10282300E8FAE9FB80047A007B00802774F412162F
:10283300B57900EAA2E0501B75084675098178084E
:102843001218C87C047D007A937B0D1207B17402C1
:1028530012165B7F04021787C082C0839002EC12BA
:10286300288E601C88828983A3A3E06A7003A3E097
:102873006B8882898370E8A3A3A3A3123326800401
:102883007A007B00D083D08202011F123DDDE8492C
:102893002274EE1216B574FC121645EAFEEBFF85A0
:1028A3001882851983E4F0A3F0EE2402123578EE42
:1028B3002405122AA9EE2404F50EEF122E8EE0242D
:1028C300FE603924FC604624FE605224FE605E24D0
:1028D300FE70030229AE24FE7003022A2624FE7032
:1028E30003022A3524FE7003022A4424FC700302E7
:1028F3002A5324FE7003022A62022A9F900305745E
:1029030017F0A3E4122AC3120457022A9F851882E0
:10291300851983AC82AD831207D5022A6F8518828D
:10292300851983AC82AD831207DB022A6F850C08FD
:10293300850D097402121691AC82AD8385088285D8
:1029430009831233261206FD8A0C8B0DAC0CAD0DD8
:10295300EC4D6042E4F50CF50D780C1218C8750CBB
:1029630005750D03780C1218C8750C06750D0378E0
:102973000C1218C874081216911218DF7916123344
:1029830020120817740812165BE9F50C700B12334A
:102993001C12046F800F750C018508828509831250
:1029A3002AB1123594850C08022A72740212169108
:1029B300AC82AD83850C82850D831233261206FD0E
:1029C3008A108B11AC10AD11EC4D6043850C8285E0
:1029D3000D83A3A31218DF75100575110378101268
:1029E30018C875100675110378101218C8740812E8
:1029F30016911218DF791612332012081774081271
:102A0300165BE9F509700B12331C120475800F7500
:102A13000901850C82850D83122AB112359485092B
:102A230008804C851882851983AC82AD831207E137
:102A3300803A851882851983AC82AD831207E780BB
:102A43002B851882851983AC82AD831207ED801C18
:102A5300851882851983AC82AD831207F3800D85B7
:102A63001882851983AC82AD831207F9E9F508E56D
:102A73000860298E828F83A3E06414601F850E8211
:102A8300850F83E0900305122ABB123DD9900306FC
:102A9300123594E508A3122AC3120451EEFAEFFB90
:102AA30012077B023480F50CEF3400F50D22123D42
:102AB300DD85188285198322F08518828519832282
:102AC300F07C057D03850A82850B8312332A2274E9
:102AD300EE1216B574FC1216458A0A8B0B8C0E8DFA
:102AE3000FEA2405F508EB3400F5097C157D007920
:102AF300007A057B03120F9DE5082402F50CE50916
:102B0300122AAC85188285198385821085831178F2
:102B1300101218C8850882850983A3A3A3A3122FC3
:102B2300D61218C8E5082405F510E5093400F51197
:102B330078101218C8850C82850D83123330120663
:102B4300F7740612165B8A108B11AE10AF11E50AEB
:102B53002402F50AE50B12357BEE4F7003022C9825
:102B63008017740212169112332688828983EAF041
:102B7300A3EBF0900305E004F0900305E0C3940594
:102B83004003022C98E4F510F51178101218C8755B
:102B930010EE75110278101218C87510EF75110236
:102BA30078101218C874061216911218DF7910EEF5
:102BB300FCEFFD123320120817740812165BE9703C
:102BC3005E850882850983A3A3A3A3A3A3A3E0F837
:102BD3009002EEE0687048122FD61218C87CEF7D81
:102BE30002E5082408FAE5093400FB120F97740282
:102BF30012165BE960298E828F83A3A3A3A31233EA
:102C030026900305E0F5107402781012163274064C
:102C13002510F58274033511F583EAF0A3EBF07404
:102C23000212169185821085831178101218C874C8
:102C3300021216911218DF850C82850D83123DEE68
:102C4300120703740412165B8A108B11AE10AF11B6
:102C5300900305E0F5107511007402781012163216
:102C630074052510F874033511F988828983A3123A
:102C730027C47003022B5CE82403F8E93400F9EE5F
:102C83004F6003022B658882898374FFF0A3F09061
:102C93000305E004F0900305E0600A12331C1204FC
:102CA300637900800B85088285098312358B790A45
:102CB30002348074EA1216B574FE1216458C128D16
:102CC30013EA2405F50CEB123F581227367508005A
:102CD300750900EA2402F510EB3400F5118518821A
:102CE30085198385820A85830B780A1218C8850C97
:102CF30082850D83A3A3A3A3122E981218C8E50CF3
:102D03002405F50AE50D12357B780A1218C8850CDF
:102D130082850D83123DEC1206F7740612165B8A48
:102D23000A8B0BEA450B7003022E49EA2404F50EC5
:102D3300EB122E8E1227368A828B83A3A3A3E0F98C
:102D43008510828511831233261206E5E9F50960A1
:102D530003022E49E4F514F51578141218C87514F6
:102D6300EE75150278141218C87514EF75150278EC
:102D7300141218C874061216911218DF7913AC0ACC
:102D8300AD0B851082851183123326120817740840
:102D930012165BE9F5096003022E499002EEE0F892
:102DA300E5087009E02402900306F08017900306FB
:102DB300E0FCE82402FAE43400FBEA6C7001EB6007
:102DC30003022E4D850882AA82122FCD9414122F4E
:102DD300C55073850E82850F83E0C0E074072A1205
:102DE3002E85D0E0F00508850E82850F83A3E0C011
:102DF300E085080A7407250A122E85D0E0F005083D
:102E03009002EE122E981218C87CEF7D0285080AF4
:102E13007407250AFA74033400FB120F8574021237
:102E2300165B9002EEE02508F50874FF6E700374DC
:102E3300FF6F6012EE24010EEF3400FFE508C39428
:102E4300145003022CE0E50860131232118510823E
:102E530085118312332612046979008014E5097001
:102E63000375090A851282851383EEF0A3EFF0A997
:102E730009740212165B7F0E02178785080C74070C
:102E8300250CF58274033400F583223400F50F8595
:102E93000E82F58322123B1B2274EE1216B574FECA
:102EA3001216458C0E8D0FEA2405F50CEB122AAC95
:102EB300750B00900305E4F0F50AEA2402F508EB2C
:102EC3003400F5098049900305E0FA9002EEE0F83A
:102ED300122FCD9417122FC5400D900305E0F874FF
:102EE30016C3989002EEF0122FD61218C87CEF7D0D
:102EF3000274062AFA74033400FB120F857402125B
:102F0300165B9002EEE0F8900305E028F0050AE571
:102F13000C2416F582E50D122E89E0F8E50AC39814
:102F23004003022FAE900305E0C39416507DE50ADB
:102F3300C333F8E433F9E50C28FEE50D39FF8518B2
:102F430082851983AC82AD838E828F8312332612DE
:102F530006FD8A108B11AC10AD11EC4D7005750B8D
:102F6300018043E4F510F51178101218C87510EEBE
:102F730075110278101218C87510EF7511027810C8
:102F83001218C874061216911218DF791685088272
:102F9300850983123326120817740812165BE9F5A4
:102FA3000B7003022EC912358780107C057D0385C3
:102FB300088285098312332612047BA90B7402024B
:102FC3003482E99400C365D03322EA28F8E434005C
:102FD300F9E822E0F51075110078102274EA121650
:102FE300B574FC1216458A0C8B0D8C128D13EA24D2
:102FF30005F50AEB12357B750800750900E50A240F
:1030030002F510E50B3400F5117402121691858256
:103013000E85830F780E1218C8850A82850B83A349
:10302300A3A3A3123AC71218C8E50A2405F50EE5AF
:103033000B3400F50F780E1218C8851082851183A2
:103043001235811233201206F7740612165B8A0EAC
:103053008B0FAE0EAF0FE50C2402F50EE50D340019
:10306300F50F80408882898374FFF00508122E7E55
:1030730074FFF005089002EEE0F50C750D00780C76
:103083001218C87CEF7D0285080C7407250CFA74AE
:10309300033400FB120F85740212165B9002EEE0FC
:1030A3002508F508EE4F60718E828F83A3A3A3E0FA
:1030B300F9850E82850F831233261206E5E9F50999
:1030C300EE2404122AA9E97044E4F514F5157814E2
:1030D3001218C87514EE75150278141218C87514F1
:1030E300EF75150278141218C87408121691121885
:1030F300DF7911EEFCEFFD850E82850F83123326F7
:10310300120817740812165BE9F5096027850C820B
:10311300850D83123207123594E50870030231EDF1
:10312300123211850E82850F8312332612048179A0
:1031330000023202850882AA82EA9002EE7009E058
:103143002404900306F08022E0F8900306E0F514CF
:10315300E82404FCE43400FDEC65147001ED70C058
:10316300122FCD9412122FC550B6850C82850D8374
:10317300E0C0E074072A122E85D0E0F00508850C24
:1031830082850D83A3E0C0E0122E7ED0E0123223AD
:1031930085820C85830D780C1218C874041216915D
:1031A3001218DF851082851183123DEE1207037416
:1031B3000412165B8A0C8B0DAE0CAF0D85080C74D4
:1031C30007250CF874033400F9EE4F7003023067DF
:1031D300851882851983E088828983123223A3E0CC
:1031E300C0E0122E7ED0E0023075E5097003750948
:1031F3000A850A82850B83123207123594A9097452
:1032030004022E76123DDD851282851383229003FC
:1032130006E0F5F0E50884900305F07C057D0322C4
:10322300F005088518828519832274EC1216B5748B
:10323300FE1216458A088B098C0E8D0FEA2405FEB3
:10324300EB3400FF851882851983AC82AD838E82AF
:103253008F831233261206FD8A0A8B0BEE24181273
:103263002AA9EA450B70030232F7123469503285FA
:10327300188285198312332612080B8A108B11EAE0
:103283004511606B7912AC0AAD0B85088285098301
:103293001233268510828511831216B3E9F50A705D
:1032A30058E4F50AF50B780A1218C88E828F83A3A7
:1032B300A3E0F50A780A1218C8EE240312357878C9
:1032C3000A1218C88E828F8312333012081D7406B7
:1032D30012165BE9F50A7021850C82850D83E07077
:1032E3001F8508828509831233261204878011758E
:1032F3000A0E8009750A018004E50A600312358706
:10330300850C82850D83E0600479008002A90A742C
:103313000212165B7F0C0217877C057D03850A82E8
:10332300850B8312332A22E0FAA3E0FB22E0FCA3FD
:10333300E0FD85088285098312332A2274EE121672
:10334300B574FE1216458A088B098C0C8D0DEA2480
:1033530005FEEB3400FF750E00851882851983ACDA
:1033630082AD838E828F831233261206FD8A0A8BE7
:103373000BEA450B70030234551234695035851836
:103383008285198312332612080B8A0E8B0FEA45A6
:103393000F605E7912AC0AAD0B8508828509831232
:1033A3003326850E82850F831216B3E9F50E60036B
:1033B30002345885088285098312366FAA0AFB12E4
:1033C30007FF8A108B11A810A911E849701E7AFF14
:1033D3007BFF1207FF8A108B11A810A911E849601F
:1033E3006C88828983E50AF0A3E50BF0750A0080F7
:1033F30007750E0E805F050A9002EBE0FAE50AC33B
:103403009A504AE50A75F017A4FAABF088828983CB
:10341300A3A3E02AFAA3E03BFB8A828B83123581C4
:10342300EC4D70D2750A17750B00780A1218C8EEA6
:10343300FCEFFD120F85740212165BEEFCEFFD85A7
:10344300088285098312332612048D8014750E09B0
:103453008003750E01123DD5850C82850D831235CF
:1034630094A90E022FC0E5082402F508E5093400EB
:10347300F5098A828B83A3A3A3E0A2E52274041235
:10348300165B7F0A02178774EC1216B58C108D1128
:10349300EA2405F50CEB122AAC750F00EA2402F5B9
:1034A3000AEB12357B850A82F5831233261207FF56
:1034B3008A088B09EA4509700302356D750E008091
:1034C30071850C82850D83E06401704F8E828F833A
:1034D300A3A31218DF8E828F83A3A3A3A3E0F51205
:1034E30075130078121218C8EE2405F512EF340094
:1034F300F51378121218C812332012081D7406121D
:10350300165BE9F50F6014850C82850D83E4F012D8
:103513003DD58510828511831235947C177D007902
:1035230000EEFAEFFB120F9D8E828F83E4F0A3F07F
:10353300050E9002EBE0F8E50EC398501EE50E75FC
:10354300F017A4F8A9F0850882850983A3A3123F85
:1035530062123581EC4D60030234C485088285090B
:103563008374FFF0A3F0E50F700612332012049367
:10357300A90F023317F50AEF3400F50B22A3E0FC81
:10358300A3E0FD228E828F83123DDD850E82850F9F
:1035930083E8F0A3E9F022C082C0839002E7E06AE7
:1035A3007003A3E06B70067AE77B0280047A007BEA
:1035B30000022887C082C08378008C828D83E06AF2
:1035C3007003A3E06B7010E875F003A4F8A9F0ECA6
:1035D30028FAED39FB8015088C828D83A3A3A3E021
:1035E3006A7003A3E06B60DF7A007B0002288774B4
:1035F300F61216B51207C98A828B83E5824583705A
:10360300067A007B008007A3A3A3A3123326023C00
:103613008674F21216B5E9FE740E12169112366F05
:103623007410121691123AE78C828D83E064027053
:1036330036A3123DE3F50CA3E0F9A80C74026870FD
:10364300037429697021750C02750D00780C12182A
:10365300C878081218C8780A1218C8EEF912084177
:10366300740612165B80027901023D0AE0F50AA393
:10367300E0F50B2274E81216B574FB121645E985C2
:103683001882851983F08A168B17ECFEEDFF7510EF
:1036930000741D121691123DD9741D121691123524
:1036A300948E828F83A3A3A3E0A2E4502D741D12F2
:1036B300169112332612080B8A828B83E582458387
:1036C3007003023AB8790AEEFCEFFDAA16AB1712A3
:1036D30016B3E9F5106003023ABB741F1216911278
:1036E3003AE7742112169112366F7423121691E081
:1036F300F50EA3E0F50F8E828F83E0640260030270
:103703003A66A3123DD9850882850983A38582126F
:10371300858313EE2406122AA988828983E0FAA3FB
:10372300E0F9EA2400F514E439F515781412195276
:103733000100002801285B370700022820380328EE
:103743008D37002957390129823902292339032961
:1037530057390429013A663AE50E450F6003023AE8
:1037630061850C82850D83123ADCFAE9FB8A828B30
:1037730083E0850A82850B83123B121218C88A8262
:103783008B83A3E0FCA3E00239EBE50E450F600356
:10379300023A61850A82850B837401F0123AEF8540
:1037A3000882850983F07C007D008E828F83A3A32A
:1037B300A3A3E02401FAA3E03400FB1206FDEA4BC5
:1037C30060418A828B83E02402F8850A82850B8319
:1037D300E028F0EA2404F8EB3400F988828983E0D6
:1037E300851282851383123B24123B121218C88A56
:1037F300828B83123580E5082403FAE5093400FB44
:103803000239F0850A82850B83E02404F07C047D71
:10381300007900AA12AB13120F9D023ABBE50E45C5
:103823000F6003023A61123AEFFEA3E0FF850A82BA
:10383300850B837404F0EE850882850983F0EF8598
:103843001282851383F07403121691AC82AD83EE5A
:10385300FAEFFB1206FD8A0C8B0DEA450D7003028D
:1038630039048A828B83A3A312273274011216911F
:1038730085820E85830F780E1218C874051216916F
:103883001218DF7CFF7DFF120703740412165B8B93
:103893000FEA450F7033850C82850D83123AC712E8
:1038A30018C8850C82850D83A31218DF7C027D0066
:1038B3007AB47B8112052F740412165BE9700A74C3
:1038C3000112169174FFF0A3F08E828F83E06402DD
:1038D3007039750C02750D00780C1218C88E828F22
:1038E30083123580E5082404FAE5093400FB120F3E
:1038F30085740212165B850A82850B83E02402809D
:10390300097401121691EEF0A3EFF07401121691EF
:10391300123AD8F07401121691A3123AD0023A5B0C
:10392300E50E450F6003023A61850C82850D831213
:103933003581AA16AB17120835850A82850B837465
:1039430002F0EA850882850983F085128285138354
:10395300EB023A5EE50E450F6003023A61123AEF5D
:10396300F8A3E0F9850A82850B837402F0E88508E1
:1039730082850983F0E9851282851383023A5E8585
:103983000C82850D83123326120F7FEAFC8C82A8EA
:1039930082C3950EE4950F405FE8650E7002E50F54
:1039A30070047C008022851882851983E0FAE50E75
:1039B3002AFAE50F3400FBC3EA98EB94005003E0C6
:1039C3008005E50ECCC39CFCEC850A82850B83F055
:1039D3008C0A750B00780A1218C8850C82850D8332
:1039E300E0250EFCA3E0350FFDAA08AB09120F85F5
:1039F300740212165B023ABB751007023ABBE50E5E
:103A0300450F705A850C82850D83123DD9850A8234
:103A1300850B83740712273E123AD012273EA3E088
:103A2300851282851383F0E82402FAE93400FB8AC5
:103A3300828B83123AD0123AFF123AD8A3123B0870
:103A4300123AE1F0E82405F8E93400F98882898321
:103A5300123AE1A3123B24A3A3A3A3F0805A751047
:103A63000B8055741D1216911233261207C98A82D0
:103A73008B83E5824583603D123DD9880C890DE82F
:103A8300450D6031780E1218C8780A1218C87808E4
:103A93001218C87406121691E0F9EEFCEFFDAA168F
:103AA300AB17850C82850D831216B3740612165B51
:103AB300E9F510800375100EA910740512165B7FCB
:103AC30010021787E0F50E750F00780E22E08508C7
:103AD3008285098322123B2E22123DDDE822123B0E
:103AE3002EA3A322E0F508A3E0F50922850C828525
:103AF3000D83E0F8A3E0F5838882E022A3A3F08A94
:103B0300828B83A322F088828983A3A3A3A322F0B9
:103B13008A828B83123B1B22E0F50A750B00780A1D
:103B230022F088828983A3123B2E22E085088285B6
:103B33000983A3A32274EE1216B574FE1216458AE6
:103B43000A8B0BECFAEDFB7414121691E0F510A33B
:103B5300E0F5117416121691E0FE7418121691E036
:103B6300F50EA3E0F50F851882851983AC82AD832A
:103B73001206FD8A0C8B0DEA450D60498518828576
:103B830019831233261207C98A828B83E582458300
:103B9300602FA3A3123AE7E50845096024780E12C3
:103BA30018C878101218C8EEF9AC0CAD0DAA0AAB00
:103BB3000B8508828509831216B3740412165B8081
:103BC30006790E80027901022FC074F61216B574BD
:103BD300FE121645740C121691123ADC8518828572
:103BE3001983F07401121691E9F0E4F508F50978E8
:103BF300081218C875080278081218C87404121637
:103C03009185820885830978081218C812081D74E3
:103C13000612165B740212165B806874F71216B5EF
:103C2300EAFEEBFF89087C1E7D03120835EA540285
:103C3300600BA908EEFAEFFB1206F180027901028C
:103C4300263A74F61216B574FF6A700374FF6B702C
:103C5300168C828D83123C8BE4F08C828D83A3A31C
:103C6300A3123C8BA380181208058A088B09A808A5
:103C7300A909E849600D8882898374FF12273CA350
:103C8300A3E4F07F0202178774FFF0A3F08C828D08
:103C930083A3A32274F61216B51208058A828B83B6
:103CA300E58245836006A3A3E0FA80027A007B00E5
:103CB30080D174F21216B58A088B09ECFEEDFF74FD
:103CC3000E121691E0F50A1208058A0C8B0DA80C4A
:103CD300A90DE8497026EEFCEFFD7AFF7BFF120881
:103CE300058A0C8B0DA80CA90DE849700479118085
:103CF3001688828983E508F0A3E509F08882898321
:103D0300A3A3E50AF079007F0602178774EE121663
:103D1300B5EAFEEBFF8C088D09890C741412169119
:103D2300123DD97416121691123326750D00E84907
:103D33006003023DCD7402650C6003023DC874123A
:103D4300121691123DE3FCA3E0F9EC2400F50EE416
:103D530039F50FEAF4F8EBF4F9EC58F8E50F59F9F3
:103D6300E849705CE5082406F8ED3400F9880A890F
:103D73000B8882F583123DEE1208358A108B11E50C
:103D83000E65107004E50F65116042780E1218C8B5
:103D9300850A82850B83123DEE12083B74021216CC
:103DA3005BE9F50D7027780E1218C885088285091E
:103DB30083A3A3123DEC120853740212165B800D09
:103DC300750D808008750D0D8003750D0BA90D020F
:103DD30034858E828F83123DDD22E0F8A3E0F92241
:103DE300123DDD88828983E022A3A3E0FCA3E0FDEA
:103DF300EEFAEFFB2274E81216B574E71216458546
:103E03001882851983EAF0A3EBF08C168D17890EBF
:103E13007508007509007431121691E0F512A3E0DC
:103E2300F5137433121691E0F514A3E0F515743508
:103E3300121691E0F50FE50975F003A4F8A9F085D2
:103E43001882851983123F62E0F47003A3E0F470D3
:103E530003023F45EE2402F50CEF123F58E07003D6
:103E6300023F4585160A85170B780A1218C8AC1449
:103E7300AD15AA12AB131207BD740212165B8A0AA0
:103E83008B0BEA450B7003023F45E4F510F51178FF
:103E9300101218C874061216918582108583117842
:103EA300101218C87409121691858210858311782F
:103EB300101218C8851282851383A3A3A3A3121813
:103EC300DF7914AC0AAD0B8E828F8312332612086E
:103ED30017740812165BE97069850A82850B83A340
:103EE300A3A3A3123DD97402121691123594850C23
:103EF30082850D83E0A2E05018A90E740212169178
:103F0300AC82AD838E828F83123326120715E9426A
:103F130008850C82850D83E0A2E15026E50FF50AA2
:103F2300780A1218CCA90E7403121691AC82AD83D1
:103F33008E828F8312332612070F740112165BE9E8
:103F430042080509E509C394025003023E39A90852
:103F53007419023ABF3400F50D850C82F58322E013
:103F630028FEA3E039FF8E828F832274F21216B5E6
:103F7300EAFEEBFF890B7401650B600E7402650B9F
:103F8300706A7901120A1BE97062EEFAEFFB1207FD
:103F9300FF8A088B09EA45096047750A00800B7C94
:103FA300177D007900120F9D050A9002EBE0F8E5FA
:103FB3000AC3985021E50A75F017A4F8A9F08508FB
:103FC30082850983A3A3E028FAA3E039FB8A828BC5
:103FD3008312288E70C985088285098374FFF0A334
:103FE300F07C1E7D03EEFAEFFB12082F023D0A74EC
:103FF300F21216B58A088B09ECFEEDFF740E121649
:104003009112366F900D91E0F4603D7A097B0012B6
:104013000FA9EA4B60328A828B8374B1F0A3E41256
:104023003B01A3123AFFA3E508F0A3E50912404EB2
:10403300EEF0A3EF12404EA3A3E50AF0A3E50BF0C5
:10404300900D91E0F9120FB5023D0AF08A828B833D
:10405300A3A3A3A3A32274F01216B574D712164513
:10406300E9C0E0851882851983D0E0F07401121647
:1040730091EAF0A3EBF08C0E8D0F90814C74031238
:1040830016AB740612155874031216AB740112168C
:1040930091E0FAA3E0FB851882851983E0F91210F9
:1040A300A5E9FEEEC3940A40030241E6EEF91210BD
:1040B300DBE9FF900E7DE0640270047401800274FA
:1040C30000F50878081218CC743A121691E0FDEF47
:1040D300FCEEF9AA0EAB0F12114D740112165B7CA4
:1040E300147D00790074151216A3120F9D8A088B94
:1040F3000985080A85090B74151216AB7A1075F039
:1041030006EEA42424F91212A3E9703B7C1079FF74
:1041130074151216A3120FFDE9702C742512169153
:10412300AC82AD837A0475F006EEA42425F912124D
:10413300A3E9F50874151216ABEFA2E0E433F9AA6C
:104143000EAB0F1205C5E974091216AB7A0C747025
:104153002EF91212A3E9707974091216A31210CF63
:10416300750800E508C394045067E508F87900E88A
:1041730075F003A4C8AAF075F000A42AFA75F00339
:10418300E9A42AF97409121691E58228F50CE5834E
:1041930039F50D850C82850D83E0F8A3E0F9E84934
:1041A300602B850C82850D83A3A3E0F50A750B00B4
:1041B300780A1218C8850C82850D83E0FCA3E0FD04
:1041C300AA0EAB0F120823740212165BE9050880CE
:1041D30092EFA2E1500D90076AE0F9AA0EAB0F121D
:1041E3000829E97439121691E06404700F900E7D6A
:1041F300E064027007AA0EAB0F121147790074290D
:1042030012165B7F0802178774F21216B5890B8AA0
:10421300088B09ECFEEDFF750A0AE50B600B1460D1
:104223000814604114605F807CAA08AB091210ED8A
:10423300E9F50AE50AC3940A506BEE4F6067750C03
:1042430006750D00780C1218C8AC08AD09EEFAEF2C
:10425300FB120F85740212165B8A0C8B0D850C8280
:10426300850D838040AA08AB091210E7E9F50AE53A
:104273000AC3940A502FEE4F602BEEFAEFFBA90A04
:104283001210E1E9801FAA08AB091210F3E9F50A3D
:10429300E50AC3940A500EEE4F600AEEFAEFFBA94B
:1042A3000A1210E1E9A90A7F0602178774F21216AF
:1042B300B58A0C8B0DE9FF7E1574FF650C700474D1
:1042C300FF650D702A750800E508C3940A5014EFC2
:1042D300FC7A027B00A9081210BDE960027E00058A
:1042E3000880E5EF60627A357B11120A2D8059AAA6
:1042F3000CAB0D120A0F8A088B0985080A85090B76
:10430300E50A450B60407C007D00E50A2405FAE4DC
:10431300350BFB850A82850B83A3A3A3A3E0F912C4
:1043230010A5E9F508E508C3940A500EEFFC7A02DC
:104333007B00A9081210BDE97E00EF600BAA0AAB4F
:104343000B12113580027E14EEF97F060217877473
:10435300F01216B574FE121645851882851983EA84
:10436300F0A3EBF08C0A8D0B7412121691E0F50E8C
:10437300A3E0F50F7E15851882851983E064FF702D
:1043830004A3E064FF701D7F00EFC3940A506BAC7D
:104393000EAD0FAA0AAB0BEFF91210C3E960027E50
:1043A300000F80E5851882851983E0FAA3E0FB12EC
:1043B3000A0F8A0C8B0D850C08850D09E508450944
:1043C30060367C007D00E5082405FAE43509FB85A9
:1043D3000882850983A3A3A3A3E0F91210A5E9FF2B
:1043E300EFC3940A5014AC0EAD0FAA0AAB0BEFF94E
:1043F3001210C3E97E0080027E14EEF974021216D5
:104403005B7F0802178774F21216B574EC12164517
:104413008A0A8B0B850A82850B83A3A3E024FA7097
:104423000302484D24FD70030246C5147003024481
:10443300F914601024FD700302466D1470030247E3
:10444300080248BBAE0AAF0B900784E0F8A3E0F97B
:10445300E8496066900784E0F8A3E0F5838882E08A
:10446300F8A3E0F9E8496052EE240CF582E43FF545
:1044730083E0F50878081218CCEE240BF582E43FAC
:10448300F583E0F98E828F83A3A3A3A3A3A3A3A39E
:10449300A3E0FCA3E0FDEE2403FAE43FFB900784D2
:1044A300E0F8A3E0F5838882E0F8A3E0F58388824F
:1044B3001216B3740112165B80398E828F83A3A305
:1044C300A3A3A3A3A3A3A31218DF90078012151B12
:1044D3001205D7740212165BE9601879018E828F78
:1044E30083A3A3A3A3A3A3A3A3A3E0FAA3E0FB1221
:1044F30005D1E90248BBAE0AAF0B8E828F83A3E0DE
:10450300600302461B8E828F83A3A3A3A3A3E0A20F
:10451300E0400302461B90081EE0F8A3E0F9E849D7
:10452300600302461B7C0E7D007900AA18AB1912AA
:104533000F9D8A088B09AA08AB09EE240CF582E4C7
:104543003FF583E0F8A3E0F9E8496036750806759E
:10455300090078081218C8EE240CF582E43FF583AD
:10456300E02410FCA3E03400FD74021216A3120F22
:1045730085740212165B8A088B0985088285098374
:10458300804F8E828F83A3A3A3E0FAA3E0FB120ADA
:104593000F8A0C8B0D850C08850D09E5084509600C
:1045A3002D750C06750D00780C1218C8E508240546
:1045B300FCE43509FD74021216A3120F857402126E
:1045C300165B8A0C8B0D850C82850D838003024854
:1045D300BB8E828F83A3A3A3A3A3E0A2E25004D242
:1045E300F08002C2F0A2F0E433F87900740C1216E2
:1045F30091E048F0A3E049F0EEFCEFFDAA18AB19F7
:104603001210D5E970127A027B0090076AE0F91262
:104613000FD9E979000248BD900784E0F8A3E0F9D7
:10462300E8496043900784E0F8A3E0F5838882A318
:10463300A3E0F8A3E0F9E849602D8E828F83A3E01D
:10464300FC79018E828F83A3A3A3E0FAA3E0FB90FE
:104653000784E0F8A3E0F5838882A3A3E0F8A3E04E
:10466300F58388821216B30248BBAE0AAF0B9007DC
:1046730084E0F8A3E0F9E8496045900784E0F8A3F3
:10468300E0F5838882A3A3E0F8A3E0F9E849602F6B
:10469300850A82850B83A3E0FC79028E828F83A334
:1046A300A3A3E0FAA3E0FB900784E0F8A3E0F5837B
:1046B3008882A3A3E0F8A3E0F58388821216B302ED
:1046C30048BB850A08850B097C007D00E5082404A6
:1046D300FAE43509FB850882850983A3A3A3E0F9DE
:1046E3001210A5E9FEEEC3940A5017E508240AFC4C
:1046F300E43509FD7A0475F006EEA42425F91212B7
:104703009DE90248BBAE0AAF0B90077FE0601890AB
:104713000E7EE0F98E828F83A3A3A3E0FAA3E0FBCE
:104723001205D1E90248BB900E7DE0701579058E24
:10473300828F83A3A3A3E0FAA3E0FB1205D1E902CE
:1047430048BB8E828F83A3A3A3E0FAA3E0FB120AE4
:104753000F8A0C8B0D850C08850D098E828F83A320
:10476300A3A3A3A3A3A3E0A2E05071E508450960B6
:1047730068850882850983A3A3A3A3E0605E8E8274
:104783008F83A3A3A3A3A3A3A3A3A3E0F8A3E0F905
:10479300E8C4540FF87900E85401F8E95400F9E843
:1047A300A2E04038740E1216ABE5082405FAE4358E
:1047B30009FB850882850983A3A3A3A3E0F912104B
:1047C300A5E9701879038E828F83A3A3A3E0FAA3CC
:1047D300E0FB1205D1E90248BB0248BBEE2405FC0D
:1047E300E43FFD850882850983A3A3A3A3E0F98E93
:1047F300828F83A3A3A3E0FAA3E0FB1211419007E6
:1048030084E0F8A3E0F9E849603E900784E0F8A368
:10481300E0F5838882A3A3E0F8A3E0F9E8496028E0
:104823007C0079008E828F83A3A3A3E0FAA3E0FB2D
:10483300900784E0F8A3E0F5838882A3A3E0F8A3BC
:10484300E0F58388821216B3806E12069DE97068C4
:10485300900813E06401701A12110BE9FE9008131B
:104863007400F07C0A7D0079007A147B08120F9D96
:10487300803C7E00EEC3940A50348E0875090074A0
:10488300142508F58274083509F583E06401701B6B
:10489300EEF9121111E9F88E087509007414250850
:1048A300F58274083509F5837400F00E80C67950DB
:1048B3001212A9E9FE1210F97901741412165B7F22
:1048C3000602178774F31216B574F2121645890897
:1048D300EAFEEBFF8C09AC18AD197A0E75F006E50C
:1048E30008A42420F91212A3E970647C0679FFAAB4
:1048F30018AB19120FFDE97056740C121691E0F8FB
:10490300A3E0F9E8F50CE5096005EE420C8004EE3E
:10491300F4520C850C0A750B00740C121691E065A9
:104923000A7004A3E0650B6022E50CF87900740CAF
:10493300121691E8F0A3E9F0AC18AD197A0E75F0F0
:1049430006E508A42420F912129DE9790180027971
:1049530000740E12165B7F0502178774F01216B5EA
:1049630074E612164589098A0E8B0FECFEEDFF746F
:104973000C1216AB7A0E75F006E509A42420F91281
:1049830012A3E96003024A8E7C0679FF740C1216A7
:10499300A3120FFDE96003024A8EAC18AD197A0C1D
:1049A30074702509F91212A3E96003024A8A750893
:1049B30000AA18AB191210CFE50E450F702E7C0C10
:1049C3007900AA18AB19120FFDE96003024A707C43
:1049D3000C7D007900AA18AB19120F9D8A0A8B0B64
:1049E300850A82850B83750801024A70AC18AD19DC
:1049F300AA0EAB0F1210C98A0C8B0D850C0A850DFC
:104A03000BE50A450B7030EE4F601BAC18AD197AFD
:104A1300007B001210C98A0C8B0DA80CA90D880A03
:104A2300890BE849700479008063850A82850B83CA
:104A3300E50EF0A3E50FF0850A82850B83A3A3E0BF
:104A4300F87900EE687002EF696022EEC0E0850A33
:104A530082850B83A3A3D0E0F0EE4F700D850A820D
:104A6300850B837400F0A37400F0750801E50860FA
:104A730016AA18AB191210CFAC18AD197A0C7470B2
:104A83002509F912129DE9790180027900741A123D
:104A9300165B7F0802178774F71216B5EAFEEBFF61
:104AA3007B00EBC39404504EEBF87900E875F003F8
:104AB300A4C8AAF075F000A42AFA75F003E9A42AA1
:104AC300F9EC28F582ED39F583E06E7003A3E06F0E
:104AD3007021EBF87900E875F003A4C8AAF075F02B
:104AE30000A42AFA75F003E9A42AF9EC28FAED39AF
:104AF300FB80070B80AC7A007B007F010217877471
:104B0300F71216B57F00EFC394044003024BB1EFD5
:104B1300F87900E875F003A4C8ACF075F000A42C94
:104B2300FC75F003E9A42CF9EA28F582EB39F58347
:104B3300E0F4FCA3E0F4FDEFF87900E875F003A4DA
:104B4300C8AEF075F000A42EFE75F003E9A42EF9AB
:104B5300EA28F582EB39F583ECF0A3EDF0EFF87971
:104B630000E875F003A4C8ACF075F000A42CFC7544
:104B7300F003E9A42CF9EA28F582EB39F583A3A322
:104B8300E0F4C0E0EFF87900E875F003A4C8ACF0F6
:104B930075F000A42CFC75F003E9A42CF9EA28F5C0
:104BA30082EB39F583A3A3D0E0F00F024B097F0119
:104BB30002178774F01216B574F4121645EAFEEB69
:104BC300FF8C088D0990081EE0F8A3E0F9E849700E
:104BD3002CEE4F6006E508450970057901024E6227
:104BE300EEFAEFFB1210EDE9900E81F0900E81E0EA
:104BF300C3940A40081210FFE9900E81F0900E81D1
:104C0300E0C3940A4003024E6090081EE0F8A3E05C
:104C1300F9E8496003024CACEEFCEFFD7A0E75F047
:104C230006900E81E0A42420F912129DE9F50B7C75
:104C33000C7D0079FFAA18AB19120F9D8A0C8B0DFE
:104C4300850C0E850D0FAC18AD197A0C900E81E012
:104C53002470F912129DE9F50A750C0E750D007892
:104C63000C1218C8EEFCEFFD900E81E0F87900E815
:104C730075F00EA4C8AAF075F000A42AFA75F00E18
:104C8300E9A42AF9748628FA740739FB120F85748C
:104C93000212165B8A0C8B0DA80CA90D90081EE559
:104CA30008F0A3E509F0024E5C90081EE0F8A3E0CB
:104CB300C82406F582C83400F583E0F8A3E0F9E8D8
:104CC30049604390081EE0F8A3E0C82406F582C8B3
:104CD3003400F583E0FCA3E0FD7A1B75F006900E2B
:104CE30081E0A42421F912129DE9F890081EE0F94D
:104CF300A3E0C92406F582C93400F5837400F0A348
:104D03007400F0024E5C90081EE0F8A3E0C8240A89
:104D1300F582C83400F583E0F8A3E0F9E84960437D
:104D230090081EE0F8A3E0C8240AF582C83400F511
:104D330083E0FCA3E0FD7A1B75F006900E81E0A4EE
:104D43002422F912129DE9F890081EE0F9A3E0C9A4
:104D5300240AF582C93400F5837400F0A37400F0CB
:104D6300024E5C90081EE0F8A3E0C8240CF582C84C
:104D73003400F583E0F8A3E0F9E849604390081EA6
:104D8300E0F8A3E0C8240CF582C83400F583E0FC06
:104D9300A3E0FD7A1075F006900E81E0A42423F9B8
:104DA30012129DE9F890081EE0F9A3E0C9240CF55E
:104DB30082C93400F5837400F0A37400F0024E5CE2
:104DC30090081EE0F8A3E0C82408F582C83400F573
:104DD30083E0F8A3E0F9E849606F90081EE0F8A3C8
:104DE300E0C82408F582C83400F583E0FCA3E0FDA5
:104DF3007A1075F006900E81E0A42424F912129D16
:104E0300E9F50A90081EE0F8A3E0C82408F582C873
:104E13003400F583E02410FCA3E03400FD7A04752C
:104E2300F006900E81E0A42425F912129DE9F89072
:104E3300081EE0F9A3E0C92408F582C93400F5830C
:104E43007400F0A37400F08010900812E060031265
:104E5300115312113B7901800679008002790174A4
:104E63000C12165B7F0802178774F71216B574F2DB
:104E7300121645E9FEAC18AD197A0E75F006EEA4CC
:104E83002420F91212A3E9700E740C121691E0F8A3
:104E9300A3E0F9E8F980027900740E12165B7F0132
:104EA30002178774F41216B574F21216458909EACB
:104EB300FEEBFFE509C3940A5004EE4F7004790238
:104EC3008041AC18AD197A0E75F006E509A42420CB
:104ED300F91212A3E9F508E5087026750A06750BA1
:104EE30000780A1218C874021216ABEEFAEFFB121E
:104EF3000F85740212165B8A0A8B0B850A82850B57
:104F030083A908740E12165B7F0402178774F412C8
:104F130016B5EAFEEBFF750800E508C3940A504492
:104F2300750A06750B00780A1218C8EEFCEFFDE54A
:104F330008F87900E875F00EA4C8AAF075F000A48B
:104F43002AFA75F00EE9A42AF9748C28FA74073941
:104F5300FB120F97740212165BE96004A90880061E
:104F6300050880B5790A7F0402178774F41216B511
:104F7300EAFEEBFF750800E508C3940A5044750A7E
:104F830006750B00780A1218C8EEFCEFFDE508F869
:104F93007900E875F00EA4C8AAF075F000A42AFA07
:104FA30075F00EE9A42AF9748628FA740739FB12FE
:104FB3000F97740212165BE96004A90880060508BE
:104FC30080B5790A7F0402178774F71216B574F057
:104FD300121645EAFEEBFF750800E508C3940A5074
:104FE30039AC18AD197A1075F006E508A42423F935
:104FF3001212A3E970207C1079FFAA18AB19120FC3
:10500300FDE97012EEFCEFFDAA18AB191205A7E932
:105013007004A9088006050880C0790A7410121666
:105023005B7F0102178774F41216B5750800E50853
:10503300C3940A4003025107E508F87900E875F0C4
:105043000EA4C8AAF075F000A42AFA75F00EE9A41C
:105053002AF9748628FC740739FD7A0E75F006E583
:1050630008A42420F91212A3E970030251027C065A
:105073007D0079FFE508FA7B00EA75F00EA4CAA863
:10508300F075F000A428F875F00EEBA428FB7486E5
:105093002AFA74073BFB120F9D8A0A8B0BAE0AAFE9
:1050A3000B7C067D0079FFE508FA7B00EA75F00EBC
:1050B300A4CAA8F075F000A428F875F00EEBA42894
:1050C300FB748C2AFA74073BFB120F9D8A0A8B0B25
:1050D300AC0AAD0BE508F87900E875F00EA4C8AA90
:1050E300F075F000A42AFA75F00EE9A42AF9749277
:1050F30028F582740739F5837400F0A37400F00572
:1051030008025031900812E0600312115312113B50
:105113007F0402178774F71216B57E00EEC3940A54
:1051230050327C0679FFEEFA7B00EA75F00EA4CAD2
:10513300A8F075F000A428F875F00EEBA428FB7412
:10514300862AFA74073BFB120FFDE96004EEF9802F
:10515300050E80C8790A7F0102178774F71216B506
:105163007E007F00EFC3940A502F7C0679FFEFFA8D
:105173007B00EA75F00EA4CAA8F075F000A428F825
:1051830075F00EEBA428FB74862AFA74073BFB1216
:105193000FFDE970010E0F80CBEEF97F0102178737
:1051A30074F71216B57E007F00EFC3940A500DEE1C
:1051B300700AEFF9121111E9FE0F80EDEEF97F018C
:1051C30002178774F01216B574C9121645E9FE90DA
:1051D3000E81E06E701D7A017B0090076AE0F91280
:1051E3000FDFE97A027B0090076AE0F9120FDFE92B
:1051F30012115F74291216AB7A0E75F006EEA42411
:1052030020F91212A3E960030252FA7C0679FF74B3
:10521300291216A3120FFDE960030252FA7C0E7DD8
:105223000079FF74291216A3120F9D851882851920
:1052330083EAF0A3EBF07C1B7D0079FF740E12165A
:10524300A3120F9D8A0A8B0B850A0E850B0F7C0C0C
:105253007D0079FF74021216A3120F9D8A0C8B0D29
:10526300850C0A850D0B74291216AB7A0E75F006A0
:10527300EEA42420F912129DE9F508740E1216AB60
:105283007A1B75F006EEA42421F912129DE9420857
:10529300740E1216AB7A1B75F006EEA42422F912D3
:1052A300129DE94208740E1216AB7A1075F006EEE1
:1052B300A42423F912129DE94208740E1216AB7A44
:1052C3001075F006EEA42424F912129DE942087425
:1052D3000E1216AB7A0475F006EEA42425F9121209
:1052E3009DE9420874021216AB7A0C74702EF912FF
:1052F300129DE942088003750800A9087437121645
:105303005B7F0802178774F71216B5E9FEEE900764
:105313006AF01210F97F0102178774F21216B58929
:105323000AEAFEEBFFEE5400F8EF5480F9E8496017
:105333003590076AE0F9120FC18A0C8B0DA80CA9EE
:105343000D88088909E8496012AA08AB09121123DC
:10535300E96008AA08AB09120FAFE9EE6400FAEF9F
:105363006480FB025421EE5402602D7C007D007AA0
:10537300007B001210D5E960187A017B0090076A60
:10538300E0F9120FD9E9EE6402FAEF6400FB02546C
:10539300217A027B00025421EEA2E0507D90081E88
:1053A300E0F8A3E0F5838882A3A3A3E0FAA3E0FBDC
:1053B300121159E9605E900784E0F8A3E0F9E84927
:1053C3006045900784E0F8A3E0F5838882A3A3E017
:1053D300F8A3E0F9E849602F7C00790190081EE00A
:1053E300F8A3E0F5838882A3A3A3E0FAA3E0FB90EC
:1053F3000784E0F8A3E0F5838882A3A3E0F8A3E0A1
:10540300F58388821216B312115FEE6401FAEF641A
:1054130000FB800A7A017B0080047A007B007F0610
:1054230002178774F71216B5EAFEEBFF7508018EB3
:10543300828F83E02450601314601924E1701CEE02
:10544300FAEFFB1210B7E9F5088010EEFAEFFB1242
:1054530011298007EEFAEFFB12112FA9087F010231
:10546300178774F71216B5EAFEEBFF8E828F83A3BC
:10547300A3A3A3E0641E701179008E828F83A3A37C
:10548300E0FAA3E0FB1210ABE97F0102178774F681
:105493001216B58A088B09850882850983A3A3A3FD
:1054A300A3E07034AE08AF098E828F83A3A3A3A3B6
:1054B300A3A3A31218DF8E828F83A3A3A3A3A3E0C6
:1054C300FCA3E0FD8E828F83A3A3E0FAA3E0FB128B
:1054D30010B1740212165BE97F0202178774F71288
:1054E30016B5EAFEEBFF90076AE0F98E828F83A37D
:1054F300E0FAA3E0FB120829E97F01021787C082C3
:10550300C08374FF121645121105E9C39402400BC0
:105513008518828519837402F0800985188285199C
:1055230083740AF0AC18AD197A0179051206B5E94E
:10553300740112165BD083D08202011F74F212161B
:10554300B574E81216458A088B09E9FE8C0A8D0B9F
:105553007C187D007900AA18AB19120F9D8A0C8B59
:105563000DAC0CAD0D851882851983E508F0A3E514
:1055730009F090076CE0C0E07402121691D0E0F0DD
:1055830090076DE0C0E07403121691D0E0F0900E26
:1055930080E0C0E07417121691D0E0F07415121673
:1055A30091E054FEF8A3E054FFF9900E7FE0A2E0EF
:1055B300E433FA7B00E84AF8E94BF97415121691C3
:1055C300E8F0A3E9F0900E7FE0A2E15004D2F0806E
:1055D30002C2F07415121691E054FDFAA3E054FFD1
:1055E300FBA2F0E433F87900E828F8E933F9EA4854
:1055F300F8EB49F97415121691E8F0A3E9F0900E4F
:105603007FE0A2E35004D2F08002C2F074151216B8
:1056130091E054F7FAA3E054FFFBA2F0E433F50C56
:10562300750D007403780C121632EA450CF8EB453D
:105633000DF97415121691E8F0A3E9F0900E7FE0CE
:10564300A2E45004D2F08002C2F07415121691E065
:1056530054EFFAA3E054FFFBA2F0E433F50C750D0D
:10566300007404780C121632EA450CF8EB450DF978
:105673007415121691E8F0A3E9F0900E7FE0A2E50D
:105683005004D2F08002C2F07415121691E054DF78
:10569300FAA3E054FFFBA2F0E433F50C750D00749C
:1056A30005780C121632EA450CF8EB450DF9741522
:1056B300121691E8F0A3E9F0900E7FE0A2E2500405
:1056C300D2F08002C2F07415121691E054FBFAA3D3
:1056D300E054FFFBA2F0E433F50C750D007402787F
:1056E3000C121632EA450CF8EB450DF97415121637
:1056F30091E8F0A3E9F090076DE0602A750C10754E
:105703000D00780C1218C87C6E7D07740612169172
:10571300AA82AB83120F85740212165B8A0C8B0D5F
:10572300850C82850D8390077EE06011EE600E7418
:1057330015121691E04402F0A3E04400F090077EB6
:10574300E06006780179008004780079007414120F
:105753001691E048F090076BE060067804790080CA
:1057630004780079007414121691E048F0AC0AAD85
:105773000BAA18AB191205CBE9741812165B7F0636
:1057830002178774F71216B5EAFEEBFF750800904F
:10579300077EE0600678017900800478007900E8EC
:1057A300420890076BE06006780479008004780073
:1057B3007900E84208A908EEFAEFFB120685E97FB3
:1057C3000102178774F21216B574E31216458A0C98
:1057D3008B0DE9FF8C0A8D09742B121691E0F508E5
:1057E30074086509700A75F006EFA42422FE800888
:1057F30075F006EFA42421FE7C1B7D007900740262
:105803001216A3120F9D851882851983EAF0A3EB64
:10581300F074021216AB7A1BEEF91212A3E9703878
:10582300741C121691E0C39407402D741C12169138
:10583300E0C394115022E508F50B780B1218CC74D1
:10584300031216ABE50AA2E0E433F9AA0CAB0D127E
:1058530005DD740112165BE9741D12165B7F0602E7
:10586300178774F71216B51208A1E97E00EEC394E8
:105873000A50557C0679FFEEFA7B00EA75F00EA418
:10588300CAA8F075F000A428F875F00EEBA428FB65
:1058930074862AFA74073BFB120FFDE97027EEF8B2
:1058A3007900E875F00EA4C8AAF075F000A42AFAEE
:1058B30075F00EE9A42AF9748628FA740739FB797E
:1058C300001208A7E90E80A57F0102178774F6125C
:1058D30016B574FD121645EAFEEBFF900820E0F8BA
:1058E300A3E0F9E8497039750822750908780812A8
:1058F30018C875080275090078081218C87508BA1F
:1059030075098178081218C87CFF7DFF7A017B0036
:105913001206F7740612165B900820EAF0A3EBF068
:10592300900820E0F8A3E0F9E84970030259EDE498
:10593300F508F50978081218C8740412169B88082C
:10594300890978081218C8740412169B88088909F3
:1059530078081218C89008221218DF7902900820DC
:10596300E0FCA3E0FDEEFAEFFB1208177408121631
:105973005BE9704A851882851983E0FA7B0074011C
:10598300121691E0F87900E4C8F9EA28F508EB3932
:10599300F509E5084509602678081218C89008201B
:1059A300E0F8A3E0F5838882A3A3A3A3E0FCA3E02C
:1059B300FDEEFAEFFB1210B1740212165BE9E4F587
:1059C30008F50978081218C89008221218DF7CFF1E
:1059D3007DFF900820E0FAA3E0FB12070374041292
:1059E300165B900820EAF0A3EBF0900820E0F8A300
:1059F300E0F9E84970047901800279007403121612
:105A03005B7F02021787C082C08390081EE0F8A361
:105A1300E0F9E849601790081EE0FAA3E0FB120FD3
:105A2300AFE9F890081E7400F0A37400F0900E81A3
:105A3300740AF0D083D08202011FC082C0839061B8
:105A4300907404F0A37448F0A37402F0906180741E
:105A530040F09061BC7403F09061877419F0906218
:105A630065741BF0906249E0C3941390619C400AF3
:105A73007409F090606674018007740DF09060669D
:105A8300E4F090619A7433F0A37455F09061A074BC
:105A93003AF0900544E064017009C2919003AB743D
:105AA3006780059003AB7461F0902602E4939061E4
:105AB30086F09025FCE493F46027E493540FF89068
:105AC3006185E0686012E5C654804449F5C6E59EE9
:105AD300547F644970F8E8F053C680E59E547F70A4
:105AE300FA7905120D69025C6BC082C083E5A8F8E0
:105AF30053A87E906181E4F0A3F0A3F0C2BA539A55
:105B0300FEC289759B00C2C275E90075910075BF1D
:105B13000075A91175B905906181F0A374C0F0A354
:105B2300E4F0D2BA439A0174805842A8025C6BC075
:105B330082C08374F81216459003A9E0F8A3E0F934
